:10000000F8FF002011040000EF7A0000EF7A0000F2
:10001000EF7A0000EF7A0000EF7A0000EF7A00003C
:10002000EF7A0000EF7A0000EF7A0000EF7A00002C
:10003000EF7A0000EF7A0000EF7A0000EF7A00001C
:10004000EF7A0000EF7A0000EF7A0000EF7A00000C
:10040000FFFFFFFFFFFFFFFFFFFFFFFFFEFFFFFFFD
:1004100062B60EF0E3F9FEE70100080000B2002822
:1004200003D500B2404200B200E000B270470300C2
:100430000800C0B2DBB2984202D2010018000B00E3
:10044000D2B2C0B2824202D2110002000800C0B291
:10045000DBB2984202D2010018000B00C0B2704714
:1004600010B403001C00A4B209B28C4200DA0C00E4
:10047000A4B212B2944200DA1400A4B21BB29C429D
:1004800009D1A4B209B28C4205D0A4B212B29442EE
:1004900001D0312053E0A4B209B28C4209D1A4B2F8
:1004A0001BB29C4205D0A4B212B2944201D03220B9
:1004B00045E0A4B212B2944209D1A4B21BB29C424C
:1004C00005D0A4B209B28C4201D0332037E0A4B2E7
:1004D0001BB29C4209D1A4B209B28C4205D1A4B28C
:1004E00012B2944201D0322029E0A4B21BB29C4245
:1004F00009D1A4B209B28C4205D0A4B212B294427E
:1005000001D132201BE0A4B21BB29C4209D0A4B29C
:1005100009B28C4205D1A4B212B2944201D1332067
:100520000DE0A4B212B2944209D1A4B209B28C4235
:1005300005D1A4B21BB29C4201D13320FFE710BC0D
:1005400070470021080040B2332853DA40B2DFF888
:100550005C1B31F91010042921DB40B2DFF8501B7D
:1005600031F910104B291ADB40B2DFF8401B11EBB8
:100570004001B1F90210042911DB40B2DFF8301B51
:1005800011EB4001B1F902104B2908DB40B2002801
:1005900004D00121DFF81C2B11702BE02AE040B2BF
:1005A000DFF8081B31F91010042921DA40B2DFF816
:1005B000001B31F910104B291ADA40B2DFF8EC1A9F
:1005C00011EB4001B1F90210042911DA40B2DFF851
:1005D000E01A11EB4001B1F902104B2908DA40B2E0
:1005E000002804D00121DFF8F42C117002E001E0B2
:1005F000401CA8E77047F8B50020DFF8BC1A087067
:100600000020DFF8B81A08700020DFF8B41A08706C
:100610000020DFF8B01A08700020DFF8AC1A08706C
:100620000020DFF8A81A08700020DFF8A41A08706C
:100630000020DFF8A01A08700020DFF89C1A08706C
:100640000020DFF8981A08700020DFF8941A08706C
:100650000020DFF8901A08700020DFF88C1A08706C
:100660000020DFF87C1C08700020DFF8781C087080
:100670000020DFF8741C08700020DFF8701C087080
:100680000020DFF86C1C08700020DFF8681C087080
:100690000020DFF8641C08700020DFF8601C087080
:1006A0000020DFF85C1C08700020DFF8581C087080
:1006B0000020DFF8541C08700020DFF8501C087080
:1006C0000020DFF84C1C08700020DFF82C1C08709C
:1006D0000020DFF8401C08700020DFF83C1C087088
:1006E0000020DFF8381C08700020DFF8341C087088
:1006F000002005006DB2062D80F22F816DB2002D15
:1007000004D1DFF8200C90F9000006006DB2012D35
:1007100004D1DFF8100C90F90A0006006DB2022D2A
:1007200004D1DFF8000C90F90F0006006DB2032D24
:1007300004D1DFF8F00B90F9140006006DB2042D1F
:1007400004D1DFF8E00B90F91E0006006DB2052D14
:1007500004D1DFF8D00B90F9280006000020040037
:1007600064B24D2C54DA64B276B25020DFF8B81B74
:1007700016FB0010205C012848D164B276B25020EC
:10078000DFF8A41B16FB00102018407800283DD18C
:1007900027007FB24D2F39DA7FB276B25020DFF8D2
:1007A000881B16FB0010385C00282DD17FB276B272
:1007B0005020DFF8741B16FB001038184078012811
:1007C00022D17FB2781C64B2001B401E00B2FFF73A
:1007D00023FE0A2818DA7FB2781C64B2001B401E80
:1007E00000B2FFF719FE02280EDB64B2601C6DB286
:1007F000DFF8381B21F815007FB2781C6DB2DFF8E6
:10080000301B21F8150001E07F1CC2E7641CA7E73C
:100810000020040064B24D2C4ADA64B276B2502053
:10082000DFF8041B16FB0010205C00283ED164B2E8
:1008300076B25020DFF8F01A16FB0010201840782E
:10084000012833D127007FB24D2F2FDA7FB276B245
:100850005020DFF8D41A16FB0010385C012823D191
:100860007FB276B25020DFF8C01A16FB001038189D
:100870004078002818D17FB2781C64B2001B401E5B
:1008800000B2FFF7C9FD13280EDB64B2601C6DB225
:10089000DFF8701C21F815007FB2781C6DB2DFF80C
:1008A000681C21F8150001E07F1CCCE7641CB1E74F
:1008B0006DB2DFF87C0A30F815006DB2DFF86C1A03
:1008C00031F81510401A00B2FFF7A6FD0A280BDA1E
:1008D0000120DFF8F4170870DFF8400A0078401CA8
:1008E000DFF8381A087036E06DB2DFF8440A30F8E5
:1008F00015006DB2DFF8341A31F81510401A00B245
:10090000FFF78AFD092822DB6DB2DFF8240A30F8F0
:1009100015006DB2DFF8141A31F81510401A00B244
:10092000FFF77AFD6DB2DFF8E41B31F915104900CD
:100930000A3188420BDA0120DFF890170870DFF8DF
:10094000E0090078401CDFF8D819087003E00120A6
:10095000DFF8C41908706D1CCCE6DFF86C0790F95D
:100960000000002800F08081DFF8C0090088DFF86F
:10097000C0190988401A00B2FFF74EFD0A2824DA90
:10098000DFF8AC09B0F90000DFF8A019B1F90010E8
:100990000818022190FBF1F109B2002000F0A6FB3B
:1009A000DFF86C0B007804280FDBDFF8840900887F
:1009B000DFF878190988401A00B2FFF72DFD0A28E0
:1009C00003DA0120DFF834190870DFF8300990F9F4
:1009D0000000002830D1DFF858094088DFF84C19B2
:1009E0004988401A00B2FFF717FD082824DADFF81B
:1009F0004009B0F90200DFF83419B1F90210081803
:100A0000022190FBF1F109B20A2000F06FFBDFF840
:100A1000000B007806280FDBDFF814094088DFF8A8
:100A20000C194988401A00B2FFF7F6FC092803DACE
:100A30000120DFF8CC180870DFF8C00890F900003A
:100A4000002836D1DFF8B80890F90000002830D12E
:100A5000DFF8DC088088DFF8D4188988401A00B2F3
:100A6000FFF7DAFC082824DADFF8C408B0F904003C
:100A7000DFF8B818B1F904100818022190FBF1F161
:100A800009B20F2000F032FBDFF8840A0078062854
:100A90000FDBDFF89C088088DFF890188988401AFF
:100AA00000B2FFF7B9FC092803DA0120DFF8541877
:100AB0000870DFF8480890F9000000283CD1DFF802
:100AC000400890F90000002836D1DFF8380890F986
:100AD0000000002830D1DFF85808C088DFF84C1833
:100AE000C988401A00B2FFF797FC082824DADFF81B
:100AF0004008B0F90600DFF83418B1F906100818FC
:100B0000022190FBF1F109B2142000F0EFFADFF8B6
:100B1000000A007806280FDBDFF81408C088DFF829
:100B20000C18C988401A00B2FFF776FC082803DACF
:100B30000120DFF8D4170870DFF8C00790F9000033
:100B4000002842D1DFF8B80790F9000000283CD116
:100B5000DFF8B00790F90000002836D1DFF8A807C9
:100B600090F90000002830D1DFF8C4070089DFF8D1
:100B7000BC170989401A00B2FFF74EFC082824DA96
:100B8000DFF8AC07B0F90800DFF8A017B1F90810DA
:100B90000818022190FBF1F109B21E2000F0A6FA1C
:100BA000DFF86C09007806280FDBDFF8840700897E
:100BB000DFF878170989401A00B2FFF72DFC0828E2
:100BC00003DA0120DFF844170870DFF8300790F9E6
:100BD0000000002848D1DFF8280790F9000000281D
:100BE00042D1DFF8200790F9000000283CD1DFF85F
:100BF000180790F90000002836D1DFF8100790F9A7
:100C00000000002830D1DFF828074089DFF81C17E2
:100C10004989401A00B2FFF7FFFB082824DADFF801
:100C20001007B0F90A00DFF80417B1F90A10081824
:100C3000022190FBF1F109B2282000F057FADFF809
:100C4000D008007803280FDBDFF8E4064089DFF8DE
:100C5000DC164989401A00B2FFF7DEFB062803DAEA
:100C60000120DFF8AC160870DFF8900690F900005C
:100C700000281DD1DFF8880690F90000002817D160
:100C8000DFF8800690F90000002811D1DFF878061F
:100C900090F9000000280BD1DFF8700690F90000F1
:100CA000002805D1DFF8680690F90000002868D018
:100CB0000120DFF838160870DFF8400690F90000D0
:100CC000002823D00120DFF820160870DFF8400844
:100CD00000781E2859DADFF838080078DFF8581B4A
:100CE00031F91000DFF828180978DFF8382689185C
:100CF00049785022DFF8303602FB0131405C012890
:100D000043D10120DFF8E81508703EE00120DFF84C
:100D1000E4150870DFF8E80590F90000002804D019
:100D20000A20DFF8C01508702FE0DFF8D80590F929
:100D30000000002804D00F20DFF8A815087024E078
:100D4000DFF8C40590F90000002804D01420DFF873
:100D50009415087019E0DFF8B40590F90000002838
:100D600004D01E20DFF87C1508700EE0DFF8A00527
:100D700090F90000002808D02820DFF868150870D6
:100D800003E00120DFF88C150870F1BDF0B50027F5
:100D9000DFF8B4CC8CF800700027DFF8B0CC8CF80A
:100DA000007000273800C0B2342880F27C81002710
:100DB0003B0000273C00C0B2002803D128273D009B
:100DC00028273E00C0B2DFF85C75C75D3A006DB2FF
:100DD000502D01DB4F273D006DB2002D01D50027BE
:100DE0003D0076B2502E01DB4F273E0076B2002E3A
:100DF00001D500273E002900C9B2022931DBC9B262
:100E0000D2B25027DFF820C507FB02C7CF5D012F04
:100E100025D1C9B2D2B25027DFF80CC507FB02C7F3
:100E2000CF1917F8017C002F19D1C9B2D2B25027BF
:100E3000DFF8F4C407FB02C7CF1917F8027C002FB4
:100E40000DD1C9B2C0B2994F27F8101001273C004C
:100E5000C0B2964F37F8107008373D0001E0491EC8
:100E6000CAE73100C9B24E292FDAC9B2D2B250272F
:100E7000DFF8B4C407FB02C7CF5D012F23D1C9B28D
:100E8000D2B25027DFF8A0C407FB02C7CF197F7882
:100E9000002F18D1C9B2D2B25027DFF88CC407FB9B
:100EA00002C7CF19BF78002F0DD1C9B2C0B2804F91
:100EB00027F8101001273B00C0B27D4F37F81070A3
:100EC000083F3E0001E0491CCCE7DBB2002B00F0FC
:100ED000E880E4B2002C00F0E480DFF86C7B97F946
:100EE0000070002F40F0DD80DFF8607B97F9007024
:100EF000002F40F0D680C0B26C4F37F91070C0B2EE
:100F0000DFF808CC3CF910C01CEB0707D2B25FF049
:100F1000500CDFF814E40CFB02EC17F80C70002FF7
:100F200037D1C0B2624F37F91070C0B2DFF8DCCBF6
:100F30003CF910C0B7EB0C07D2B25FF0500CDFF8F1
:100F4000E8E30CFB02EC17F80C70002F21D0DFF85F
:100F5000C07B3F787F1CDFF8B8CB8CF80070DFF8DF
:100F6000B47B97F90070012F05D0DFF8A47B97F9C7
:100F70000070012F07D1DFF8A07B3F787F1CDFF8DE
:100F800098CB8CF800700127DFF888CB8CF80070C4
:100F90000EE00027DFF87CCB8CF800700027DFF82C
:100FA00078CB8CF800700027DFF864CB8CF80070E9
:100FB000C0B23E4F37F91070C0B2DFF850CB3CF9E9
:100FC00010C01CEB0707D2B25FF0500CDFF858E3FB
:100FD0000CFB02EC17F80C70002F37D0C0B2344F66
:100FE00037F91070C0B2DFF824CB3CF910C0B7EB72
:100FF0000C07D2B25FF0500CDFF82CE30CFB02ECD4
:1010000017F80C70002F21D1DFF8107B3F787F1C80
:10101000DFF808CB8CF80070DFF8047B97F90070DC
:10102000012F05D0DFF8F47A97F90070012F07D16E
:10103000DFF8F07A3F787F1CDFF8E8CA8CF80070A0
:101040000127DFF8DCCA8CF800700EE00027DFF81B
:10105000D0CA8CF800700027DFF8C8CA8CF800707E
:101060000027DFF8B8CA8CF80070DFF8AC7A97F97F
:101070000070032F07DB0127DFF8CCC98CF8007064
:10108000DFF8A47A3870DFF89C7A97F90070032FA4
:1010900007DB0127DFF8B4C98CF80070DFF8947A19
:1010A0003870401C7FE6F0BD000000001828FF1FCC
:1010B000B027FF1F122AFF1F222AFF1F182AFF1F17
:1010C000192AFF1F1A2AFF1F152AFF1F142AFF1FA4
:1010D000162AFF1F172AFF1F1B2AFF1F1C2AFF1F8C
:1010E0001D2AFF1F1F2AFF1F202AFF1F2DE9F8437B
:1010F00004000D005FF00009B5F10A00DFF82C1ABA
:10110000088015F10A00DFF8301A0880DFF81C0AA1
:10111000B0F90000002803D50020DFF8101A08807D
:10112000DFF8140AB0F90000502803DB4F20DFF885
:10113000081A08800020DFF8D81308702700FFB2D3
:10114000322F80F2C88000208146FFB27548385C9B
:10115000DFF8DC190880DFF8D409008806003000C9
:10116000C0B2DFF8D419B1F9001000B2884280F2A1
:10117000AB80F6B2DFF8B809B0F9000050216A4A36
:1011800010FB0120305C012840F09C80F6B2DFF8B3
:10119000A009B0F900005021634A10FB012030186B
:1011A0004078002840F08E80B0464046C0B2DFF85C
:1011B0008819B1F9001000B2884280F283805FFA8A
:1011C00088F8DFF86C09B0F900005021564A10FB8E
:1011D000012018F80000002871D15FFA88F8DFF8C4
:1011E0005009B0F9000050214F4A10FB012018EBC4
:1011F00000004078012862D15FFA88F8F6B2B8EBB7
:10120000060000B2FFF708F90A2858DA5FFA88F8F2
:10121000F6B2B8EB060000B2FFF7FEF802284EDB8C
:10122000F6B2FFB2DFF8140920F817605FFA88F809
:10123000FFB2DFF80C0920F81780FFB2DFF80009D1
:1012400030F91700FFB2DFF8F41831F91710081859
:10125000022190FBF1F0FFB2DFF8DC1521F8170056
:10126000DFF8E0080770381BA949087001208146A3
:10127000FFB2DFF8C40530F817000A38DFF8AC1801
:101280000880FFB2DFF8B00530F817000A30DFF849
:10129000A8180880DFF89408B0F90000002803D5EA
:1012A0000020DFF888180880DFF88C08B0F900000B
:1012B000502803DB4F20DFF88018088002E018F187
:1012C000010872E7761C4AE74FFA89F9B9F1000F75
:1012D00001D07F1C33E7BDE8F1830000132AFF1F14
:1012E000212AFF1F322AFF1F2C2AFF1F302AFF1F2F
:1012F000312AFF1F2D2AFF1F292AFF1F232AFF1F24
:10130000242AFF1F252AFF1F262AFF1F272AFF1F27
:10131000282AFF1F2A2AFF1F2B2AFF1F2E2AFF1F02
:101320002F2AFF1F540DFF1FE414FF1F5829FF1F12
:10133000280FFF1F2DE9F041DFF80C0890F900009D
:10134000DFF8FC1731F91000DFF8FC1791F90010F5
:10135000DFF8E82732F911100818022190FBF1F0AC
:1013600007006848B0F900006749B1F90010081893
:10137000022190FBF1F080464FFA88F8DFF8CC07A5
:10138000A0F80080DFF8C00790F90000040064B204
:10139000012C1ADB4FFA88F87FB2B8EB0700DFF8B0
:1013A000A81791F9001064B2091B4843DFF8981799
:1013B00091F9001090FBF1F040FA87F064B2DFF889
:1013C0008C1721F81400641EE1E7DFF87C0790F920
:1013D0000000040064B2342C0DDA002064B2DFF89F
:1013E0005C1721F814004F2064B2DFF8541721F87D
:1013F0001400641CEEE7DFF8500790F900000400C9
:1014000064B2342C7BDA64B2DFF830042056060074
:10141000002005006DB24E2D1EDA6DB276B250205E
:10142000DFF82C1616FB0010285C012812D16DB2D3
:1014300076B25020DFF8181616FB001028184078F6
:10144000002807D16DB2681C64B2DFF8F41621F8E9
:10145000140001E06D1CDDE74F2005006DB2022D88
:101460001FDB6DB276B25020DFF8E41516FB0010DA
:10147000285C012813D16DB276B25020DFF8D01568
:1014800016FB0010281810F8010C002807D16DB2C7
:10149000681E64B2DFF8A41621F8140001E06D1E86
:1014A000DCE764B2DFF8980630F8140064B2DFF8C5
:1014B0008C1631F81410401A00B2FEF7ADFF102858
:1014C00004DB64B2DFF88806048018E064B2DFF859
:1014D0008006048064B2DFF8680630F9140064B254
:1014E000DFF8581631F914100818022190FBF1F0BA
:1014F00064B2DFF8581621F81400641C80E7BDE8D8
:10150000F08100006429FF1F340FFF1F840CFF1FB0
:101510000F2AFF1FF0B50025002600275FF0000C02
:10152000DFF830E6AEF800C05FF0000CDFF828E628
:10153000AEF800C05FF0000CDFF820E6AEF800C0A7
:10154000DFF81CC69CF900C063465BB2DFF810C62A
:101550009CF800C01CF1080C634528DA5BB2DFF888
:10156000DCC213F80CC061465FF0000C644664B244
:101570004F2C0CDA64B25FF0500CDFF8D4E411FBAE
:101580000CEC5FF0010E04F80CE0641CEFE75FF078
:10159000000C5BB2DFF8A4E52EF813C05FF04F0C2F
:1015A0005BB2DFF89CE52EF813C05B1CCDE7DFF8DB
:1015B000B0C59CF800C0DFF894E51EEB4C0C3CF97C
:1015C00002CC6046DFF898C59CF900C01CF1080CFD
:1015D00063465BB2342B80F2F3805BB2DFF85CC20F
:1015E00013F80CC061468446644664B2022C33DBB7
:1015F00064B25FF0500CDFF858E411FB0CEC14F807
:101600000CC0BCF1010F25D164B25FF0500CDFF8C3
:1016100040E411FB0CEC14EB0C0C1CF801CCBCF1FD
:10162000000F17D164B25FF0500CDFF824E411FB17
:101630000CEC14EB0C0C1CF802CCBCF1000F09D123
:1016400064B25BB2DFF8F4C42CF813405FF0010C15
:10165000654601E0641EC8E78446644664B24E2CC9
:1016600033DA64B25FF0500CDFF8E4E311FB0CEC0A
:1016700014F80CC0BCF1010F25D164B25FF0500C1E
:10168000DFF8CCE311FB0CEC14EB0C0C9CF801C064
:10169000BCF1000F17D164B25FF0500CDFF8B0E37B
:1016A00011FB0CEC14EB0C0C9CF802C0BCF1000F0D
:1016B00009D164B25BB2DFF888C42CF813405FF044
:1016C000010C664601E0641CC8E77FB2002F2ED1F2
:1016D0005BB2DFF86CC43CF913C05BB2DFF85CE4CA
:1016E0003EF913E0BCEB0E0C5BB2DFF878E43EF998
:1016F00013E0BCEB4E0F1ADA5FF0010C67465BB2E9
:10170000DFF83CC43CF913C05BB2DFF830E43EF9CB
:1017100013E01EEB0C0C5FF0020E9CFBFEFC60461F
:101720005BB21A005BB2DFF824C42CF813007FB25E
:10173000002F43D05BB2DFF808C43CF913C05BB2A2
:10174000DFF8F8E33EF913E01EEB0C0C5FF0020E3D
:101750009CFBFEFC60465BB2DFF8F0C32CF8130084
:1017600076B2002E13D16DB2002D10D05BB2DFF82F
:10177000CCC33CF813C05BB2DFF8E8E33EF813E0FB
:101780001EEB0C0C5BB2DFF8C4E32EF813C076B28C
:10179000002E13D06DB2002D10D15BB2DFF8A0C3C4
:1017A0003CF813C05BB2DFF8BCE33EF813E0BCEBDF
:1017B0000E0C5BB2DFF894E32EF813C05B1C08E755
:1017C000944663469C464FFA8CFCDFF894E39EF8FF
:1017D00000E00FFA8CFC0FFA8EFEF4452BDBDFF8ED
:1017E00080C39CF800C0DFF864E33EF91CC012B26D
:1017F000DFF858E33EF912E0BCEB0E0C12B25BB21C
:10180000B2EB030E0EFB0CFC12B2DFF854E39EF8B1
:1018100000E0B2EB0E0E9CFBFEFC12B2DFF82CE3F4
:101820003EF812E01EEB0C0C5BB2DFF820E32EF862
:1018300013C05B1EC6E7F0BD8028FF1F540DFF1FBD
:101840002DE9F843DFF820030088DFF8201309882A
:10185000401A00B2FEF7E0FD1028C0F2DE80DFF88B
:101860000803B0F90000DFF80413B1F900100818FC
:10187000022190FBF1F00400DFF8CC0290F90000A7
:10188000DFF8BC1231F91000DFF8BC1291F900103A
:10189000DFF8A82232F911100818022190FBF1F0AC
:1018A000DFF8CC120880DFF8C8020088DFF8C41225
:1018B0000880DFF8940290F90000401E060036B25E
:1018C000012EC0F2AA800020804636B2DFF8A802BE
:1018D000305C8146DFF8980200880F38DFF89C12F0
:1018E0000880DFF88C0200880F30DFF8941208803F
:1018F000DFF88802B0F90000002803D50020DFF8E7
:101900007C120880DFF87802B0F90000502803DB71
:101910004F20DFF86C120880DFF86002B0F9000099
:101920000500DFF85C02B0F900002DB285426DDAE7
:101930002DB25020464919FB0010285C012863D1C4
:101940002DB25020424919FB001028184078002879
:101950005AD12F00DFF82802B0F900003FB28742C9
:1019600052DA3FB250203A4919FB0010385C002887
:1019700048D13FB25020364919FB00103818407842
:1019800001283FD1781B00B2FEF746FD0A2839DA5C
:10199000781B00B2FEF740FD022833DB2DB205FABA
:1019A00087F0022190FBF1F00F38DFF8D0110880AA
:1019B0002DB205FA87F0022190FBF1F00F30DFF82D
:1019C000C01108802DB205FA87F0022190FBF1F0DA
:1019D000DFF8A011088001208046DFF8A001B0F9EF
:1019E0000000002803D50020DFF890110880DFF800
:1019F0009001B0F90000502803DB4F20DFF8801180
:101A0000088001E07F1CA5E76D1C8AE70FFA88F8C3
:101A1000B8F1000F01D0761E51E7DFF85801B0F998
:101A200000000B2805DBDFF84C01B0F90000452869
:101A300007DB0120DFF84C1108700020DFF84811A7
:101A40000870BDE8F1830000332AFF1F342AFF1F0E
:101A5000E414FF1F10B50020DFF8301108700020DB
:101A60000400E4B2342C28DA0020E4B2DFF8DC1001
:101A700021F814000020E4B2DFF8141121F814005A
:101A80000020E4B2DFF8B41021F814004F20E4B2D3
:101A9000DFF8AC1021F81400E4B2062C0BDA4F206A
:101AA000E4B2DFF8F01021F814000020E4B2DFF80F
:101AB000E81021F81400641CD3E7FEF79CFDDFF862
:101AC000C80090F90000002801D0FFF7B9FEDFF848
:101AD000B40090F90000002802D0FFF757F914E095
:101AE000DFF8A40090F90000002802D0FFF722FCE4
:101AF0000BE0DFF8A80090F90000002802D0FFF703
:101B000009FD02E001202149087010BDEC0CFF1F07
:101B1000362AFF1F392AFF1F372AFF1F352AFF1FCA
:101B20003A2AFF1F382AFF1F3B2AFF1FE429FF1F05
:101B3000E829FF1F3C2AFF1FE629FF1F1828FF1F67
:101B4000B027FF1F0E2AFF1F322AFF1F8028FF1F0A
:101B5000EA29FF1FEC29FF1FEE29FF1FF029FF1FB5
:101B60000F2AFF1F840CFF1F340FFF1F6429FF1F64
:101B7000F429FF1FF229FF1F540DFF1FF629FF1F35
:101B8000F829FF1F2A2AFF1F2D2AFF1F112AFF1FD6
:101B9000E828FF1F280FFF1F5829FF1F312AFF1FAA
:101BA0002DE9FE4F0020DFF81C1C08700020DFF834
:101BB000181C08700020DFF8141C08700020DFF8E3
:101BC000101C08700020DFF80C1C08700020DFF8E3
:101BD000081C08700020DFF8041C08700020DFF8E3
:101BE000001C087000208DF8060000208DF805000C
:101BF00000208DF8040000208DF8030000208DF8EF
:101C0000020000208DF8010000270020DFF8D41B1F
:101C10000870002080464FFA88F8B8F1320F80F241
:101C200012814FFA88F8DFF8C00B18F800000400A2
:101C30004FFA88F8DFF8B00B18EB000040788DF809
:101C400000004FFA88F8DFF8A00B18EB000080784E
:101C50008DF80700DFF87C0B0078002867D14FFA79
:101C600088F8DFF8880B30F9180000285FD14FFAA8
:101C700088F8DFF87C0B30F918004F2857D14FFA5D
:101C800088F8DFF8680B10EB4800B0F90200002874
:101C90004DD14FFA88F8DFF8580B10EB4800B0F937
:101CA00002004F2843D14FFA88F8DFF8400B10EBC1
:101CB0004800B0F90400002839D14FFA88F8DFF85D
:101CC000300B10EB4800B0F904004F282FD1E4B2DC
:101CD0005020DFF8201B00FB04100078012826D1DB
:101CE000E4B25020DFF80C1B00FB041090F84F000A
:101CF00001281CD19DF800005021DFF8F82A01FBD3
:101D000000200078012812D19DF800005021DFF852
:101D1000E42A01FB002090F84F00012807D1DFF8EA
:101D2000BC0A80F800800120DFF8A81A0870DFF8EC
:101D3000A80A0078002840F08380DFF8980A00782D
:101D400000287DD04FFA88F8DFF8A00A30F9180093
:101D5000002875D14FFA88F8DFF8940A30F9180096
:101D60004F286DD14FFA88F8DFF8800A10EB480051
:101D7000B0F90200002863D14FFA88F8DFF8700A42
:101D800010EB4800B0F902004F2859D1E4B25020BE
:101D9000DFF8601A00FB04104079012850D1E4B24A
:101DA0005020DFF8501A00FB041090F84A00012878
:101DB00046D1E4B25020DFF83C1A00FB0410407911
:101DC00001283DD19DF800005021DFF8282A01FBB1
:101DD000002090F84A00012832D19DF807005021D8
:101DE000DFF8102A01FB0020407900281ED09DF862
:101DF00007005021DFF8FC2901FB002090F84A0081
:101E0000002813D04FFA88F8DFF8E40910EB4800F7
:101E1000B0F904004F2809DB4FFA88F8DFF8CC0945
:101E200010EB4800B0F90400012809DB18F10100AB
:101E3000DFF8AC1908700120DFF89C19087002E087
:101E400018F10108E7E6DFF898090078DFF88C1947
:101E50000978401A042803DB0120DFF8881908708C
:101E6000DFF8800990F90000002800F02E830020A0
:101E70008046DFF868090078801C4FFA88F84045F2
:101E80007ADB4FFA88F8DFF8640910EB48008088A5
:101E90004FFA88F8DFF8541931F81810401AADF8E5
:101EA0000A004FFA88F8DFF8440910EB48008088F0
:101EB0004FFA88F8DFF8341911EB48010989401A04
:101EC00005004FFA88F8DFF8280910EB48008088F1
:101ED0004FFA88F8DFF8181931F81810401AADF8E1
:101EE00008004FFA88F8DFF8080910EB48008088EE
:101EF0004FFA88F8DFF8F81811EB48010989401A01
:101F00000600BDF90A00002817D42DB2012D14DBFC
:101F1000280000B2FEF780FA04280EDB4FFA88F89A
:101F2000DFF8C80810EB4800B0F90400012804DB12
:101F300018F10200DFF88C180870BDF908000128BC
:101F400017DA36B2002E14D5300000B2FEF764FA6C
:101F500004280EDB4FFA88F8DFF8940810EB4800ED
:101F6000B0F904004F2804DA18F10200DFF858181D
:101F7000087018F101087CE7DFF8680890F90000A4
:101F8000002800F0FB8000200021DFF86C28117091
:101F90000021002300225FF00F0C6346DBB2412BCF
:101FA00043DADFF838C89CF800C05FFA8CFCBCF15B
:101FB000340F2FDA5FFA8CFCDFF82CE81CF80EE007
:101FC0005FFA8CFCDFF820981CEB090999F8019066
:101FD000DBB25FFA8EFE5FF0500ADFF818B80AFB3A
:101FE0000EBA13F80AA0BAF1010F13D1DBB25FFAEF
:101FF00089F95FF0500ADFF8FCB70AFB09BA13F859
:102000000AA0BAF1010F05D11CF1010A51461CF1D9
:10201000010CCAE7C0B2C9B2884204D20800DFF896
:10202000D8C78CF800305B1CB8E7DFF8B0C79CF865
:1020300000C05FFA8CFCBCF1340F80F29F805FFA25
:102040008CFCDFF8A4E71CF80EE0DFF8AC9799F8F9
:1020500000905FFA89F9B9F14F0F2BDA5FFA89F92D
:102060005FFA8EFE5FF0500ADFF888B70AFB0EBAFF
:1020700019F80AA0BAF1010F19D15FFA89F95FFACC
:102080008EFE5FF0500ADFF86CB70AFB0EBA19EB50
:102090000A0A9AF801A0BAF1000F08D15FFA89F98B
:1020A0005FFA8CFCDFF848A72AF81C9002E019F1CF
:1020B0000109CEE7DFF8409799F800905FFA89F9B7
:1020C000B9F1000F2BD05FFA89F95FFA8EFE5FF04D
:1020D000500ADFF820B70AFB0EBA19F80AA0BAF1C5
:1020E000010F19D15FFA89F95FFA8EFE5FF0500A8D
:1020F000DFF800B70AFB0EBA19EB0A0A1AF801ACAE
:10210000BAF1000F08D15FFA89F95FFA8CFCDFF8A9
:10211000DCA62AF81C9002E0B9F10109CEE75FFACB
:102120008CFCDFF8C89639F91C90B9F1010F22DB5D
:102130005FFA8CFCDFF8B89639F91C90B9F14F0FB3
:1021400019DA521C52B2032A15DB5FFA8CFCDFF855
:102150009C9639F91C905FFA8CFCDFF894A63AF94A
:102160001CA01AEB09095FF0020A99FBFAF9DFF8E3
:1021700088A68AF800901CF1010C5AE7DFF8600687
:1021800090F90000801E80464FFA88F8B8F1340FAD
:1021900080F2E3804FFA88F8B8F1320F80F2838042
:1021A0004FFA88F8DFF8440630F818004FFA88F83C
:1021B000DFF8381611EB480131F8041C401AADF86D
:1021C0000A004FFA88F8DFF8240630F818004FFAB2
:1021D00088F8DFF8181611EB48018988401A0500C5
:1021E0004FFA88F8DFF8080630F818004FFA88F838
:1021F000DFF8FC1511EB480131F8041C401AADF86A
:1022000008004FFA88F8DFF8E80530F818004FFAB0
:1022100088F8DFF8DC1511EB48018988401A0600C0
:10222000BDF90A0001281DDB2DB2012D1ADABDF916
:102230000A00FEF7F1F8042814DB280000B2FEF7CC
:10224000EBF803280EDA4FFA88F8DFF8A00530F92A
:102250001800012806DBDFF8740580F800800120F3
:102260008DF80100BDF9080000281CD536B2002EFB
:1022700019D4BDF90800FEF7CFF8042813DB3000AD
:1022800000B2FEF7C9F803280DDA4FFA88F8DFF834
:10229000600530F918004F2805DADFF8340580F8BA
:1022A0000080012007009DF90100002827D14FFA86
:1022B00088F8B8F1320F22DBDFF83005B0F96200A0
:1022C00000281CD0DFF82405B0F96400002816D0DF
:1022D000DFF81805B0F96600002810D0DFF80C050B
:1022E000B0F96620DFF80405B0F96410DFF8FC04EB
:1022F000B0F96200FEF7B4F8DFF8D01408707FB2CE
:10230000002F27D14FFA88F8B8F1320F22DBDFF81F
:10231000E004B0F962004F281CD0DFF8D404B0F913
:1023200064004F2816D0DFF8C804B0F966004F28C3
:1023300010D0DFF8BC04B0F96620DFF8B404B0F9BF
:102340006410DFF8AC04B0F96200FEF789F8DFF83A
:102350008014087018F1010816E7DFF8680490F996
:10236000000000282AD1DFF8600490F9000000285E
:1023700024D1DFF85C0490F9000000281ED0DFF8BB
:102380004C0490F90000002818D0DFF854040078BD
:10239000DFF8381491F9001000B209B288420DDA62
:1023A000DFF83C040078DFF8281491F9001000B23F
:1023B00009B2884202DA01208DF80600DFF8040431
:1023C00090F90000002840D0DFF8FC0390F90000ED
:1023D00000283AD0DFF8F80390F90000002834D044
:1023E000DFF8E80390F9000000282ED0DFF8F003B2
:1023F0000078DFF8D81391F9001000B209B28842D2
:1024000023DADFF8DC030078DFF8C41391F9001059
:1024100000B209B2884218DADFF8A80390F9000088
:10242000DFF8B813097800B209B288420DDADFF894
:10243000980390F90000DFF8A413097800B209B2FC
:10244000884202DA01208DF80500DFF8780390F960
:102450000000002814D0DFF8700390F90000002875
:102460000ED0DFF86C0390F90000002805D1DFF8EA
:102470005C0390F90000002802D001208DF80400D0
:10248000DFF8400390F9000000280CD0CF4890F905
:102490000000002807D0CC4890F90000002802D1A5
:1024A00001208DF80300CA4890F9000000280CD0E4
:1024B000C54890F90000002807D0C24890F90000F4
:1024C000002802D101208DF802009DF803000028A9
:1024D00055D0BE4890F900008046BA4890F90000F7
:1024E000401E4FFA88F8404549DAB84890F9000094
:1024F000BE4931F91000B34991F90010BB4A12EB03
:10250000410131F9021C401AB04991F900104FFA0B
:1025100088F8B1EB08014843AA4991F90010491E17
:10252000AA4A92F90020891A90FBF1F0A74991F983
:102530000010AE4A32F8111008184FFA88F8AB496B
:1025400011EB480121F8020C4FFA88F8A74810EB6C
:10255000480030F8020C4FFA88F8DFF8A41B11EBA2
:10256000480131F8021C08184FFA88F8DFF8941B6C
:1025700011EB480121F8020CB8F10108ADE79DF814
:10258000020000285AD092480078401C80468E48AD
:1025900090F90000401E4FFA88F840454EDA8A480C
:1025A00090F90000924911EB400030F9020C884983
:1025B00091F900108E4A12EB4101B1F90210401A54
:1025C000834991F90010491C4FFA88F8B1EB0801D2
:1025D00048437F4991F90010491C7B4A92F9002039
:1025E000891A491C90FBF1F0794991F90010804A51
:1025F00012EB4101498808184FFA88F87C4911EB21
:10260000480121F8020C4FFA88F8794810EB48008D
:1026100030F8020C4FFA88F8DFF8E41A11EB4801A1
:1026200031F8021C401A4FFA88F8DFF8D81A11EB7B
:10263000480121F8020CB8F10108A8E79DF805004F
:10264000002804D19DF80400002800F081805F4834
:1026500090F9000080465B4890F90000401E4FFA58
:1026600088F8404531DA594890F900005F4931F95E
:102670001000544991F900105C4A12EB410131F904
:10268000021C401A514991F900104FFA88F8B1EB39
:10269000080148434B4991F90010491E4B4A92F9F1
:1026A0000020891A90FBF1F0484991F900104F4A37
:1026B00032F8111008184FFA88F84C4911EB48010C
:1026C00021F8020CB8F10108C5E741480078401C28
:1026D00080463D4890F90000401E4FFA88F840457A
:1026E00036DA394890F90000414911EB400030F9E1
:1026F000020C374991F900103D4A12EB4101B1F942
:102700000210401A324991F90010491C4FFA88F81A
:10271000B1EB080148432E4991F90010491C2A4A9F
:1027200092F90020891A491C90FBF1F0284991F98F
:1027300000102F4A12EB4101498808184FFA88F817
:102740002B4911EB480121F8020CB8F10108C0E750
:102750009DF80600002833D01C480078401C8046B5
:102760004FFA88F8B8F1000F10D4184890F900001B
:102770001E4911EB400040884FFA88F81B4911EBC5
:10278000480121F8020CB8F10108E9E71048007887
:10279000401C80464FFA88F8B8F1000F10D40C485E
:1027A00090F90000124911EB400040884FFA88F878
:1027B0000F4911EB480121F8020CB8F10108E9E7D3
:1027C000BDE8F78F422AFF1F432AFF1F442AFF1F3D
:1027D000452AFF1F3E2AFF1F3F2AFF1F402AFF1FD7
:1027E000412AFF1F3D2AFF1F540DFF1F1828FF1FFE
:1027F000B027FF1FE414FF1F462AFF1F2DE9F047F3
:102800005FF000095FF0000A0020DFF8FC18087094
:102810000020DFF8F81808700020DFF8F4180870BE
:102820000020DFF8F01808700020DFF8EC180870BE
:102830000020DFF8E81808700020DFF8E4180870BE
:102840000020DFF8E01808700020DFF8DC180870BE
:102850000020DFF8D8180870DFF8D40890F90000DD
:1028600090F00100DFF8CC180870DFF8C808007895
:10287000DFF8C0180978DFF8C02812785140084006
:10288000DFF8B8180870DFF8AC080078DFF8A8188F
:102890000870DFF8A80890F90000012831D1DFF8AE
:1028A000A0080078401CDFF898180870DFF894083A
:1028B000007890F00100DFF88C180870DFF88008CD
:1028C00090F90000022190FBF1F202FB1102002AB4
:1028D00017D10020DFF8701808700020DFF86C189E
:1028E00008700020DFF8681808700020DFF864180E
:1028F00008700020DFF8601808700020DFF85C180E
:102900000870DFF84C0890F90000002829D1DFF8A2
:10291000340890F90000002823D0DFF81C0890F953
:10292000000000281DD1FDF70CFEDFF82C0890F9FF
:102930000000002807D00120DFF80C1808700120E3
:10294000DFF80C180870DFF80C0890F90000002878
:1029500007D00120DFF8F41708700120DFF8F01726
:102960000870DFF8E40790F90000002800F0FF800D
:10297000DFF8D00790F90000002800F0F880DFF8B9
:10298000B80790F90000002840F0F1800020040012
:1029900064B2322C80F29980DFF8BC0790F9000015
:1029A000002831D064B2DFF8B80730F914000028ED
:1029B0002AD064B2DFF8AC0730F914004F2823D1D5
:1029C00064B2DFF89C0710EB4400B0F90200002865
:1029D0001AD064B2DFF88C0710EB4400B0F90200A3
:1029E0004F2811D164B2DFF8780710EB4400B0F93A
:1029F0000400002808D064B2DFF8680710EB440038
:102A0000B0F904004F280DD064B2DFF8540730F954
:102A10001400002857D164B2DFF8480730F91400D9
:102A20004F2850D1DFF8000704700120DFF8E816C6
:102A30000870DFF8F40690F90000DFF82C1791F920
:102A4000001088423FDADFF8E00690F90000050048
:102A50006DB2322D37DA6DB2DFF81007285C07004F
:102A60006DB2DFF808072818407880465FFA89F9C8
:102A7000B9F1000F25D1FFB25020DFF8F41600FBAA
:102A8000071090F84F0001281BD15FFA88F85020FA
:102A9000DFF8DC1600FB081090F84F00002810D17A
:102AA0006DB2DFF8C00630F915004F2809D1DFF804
:102AB0005C060570012081460120DFF84C16087085
:102AC00001E06D1CC4E7641C62E7DFF83C0690F986
:102AD000000000284BD0DFF834060078DFF8341609
:102AE0000870DFF88006B0F90000DFF87416B1F95D
:102AF00000100818022190FBF1F00600DFF828060C
:102B000090F90000C01E002803D50320DFF8181636
:102B10000870DFF8000690F90000040064B2012C90
:102B200025DBF6B2D6F14F00DFF8E81591F9001079
:102B300064B2091B4843DFF8DC1591F9001090FBE3
:102B4000F1F0D0F14F0064B2DFF8B81521F81400AD
:102B500064B2DFF8B00530F91400502805DB4F20CF
:102B600064B2DFF8A01521F81400641ED6E7DFF880
:102B7000DC0590F90000002800F0FA80DFF8C405B9
:102B800090F90000002800F0F380DFF8AC0590F920
:102B90000000002840F0EC800020040064B2322CD9
:102BA00080F29780DFF8AC0590F90000002831D062
:102BB00064B2DFF8AC0530F9140000282AD164B201
:102BC000DFF8A00530F914004F2823D064B2DFF8F5
:102BD000900510EB4400B0F9020000281AD164B24D
:102BE000DFF8800510EB4400B0F902004F2811D047
:102BF00064B2DFF86C0510EB4400B0F90400002863
:102C000008D164B2DFF85C0510EB4400B0F90400B1
:102C10004F280DD164B2DFF8480530F914000028C0
:102C200055D164B2DFF83C0530F914004F284ED17D
:102C3000DFF8F80404700120DFF8E0140870DFF812
:102C4000EC0490F90000DFF82C1591F9001088428F
:102C50003DDADFF8D80490F9000005006DB2332D9D
:102C600035DA6DB2DFF80405285C07006DB2DFF8D5
:102C7000FC042818407880465FFA8AFABAF1000FFF
:102C800023D1FFB25020DFF8E81400FB07100078D2
:102C900001281AD15FFA88F85020DFF8D41400FB1D
:102CA00008100078002810D16DB2DFF8B40430F9B4
:102CB0001500002809D1DFF858040570012082466C
:102CC0000120DFF85C14087001E06D1CC6E7641C8D
:102CD00064E7DFF84C0490F90000002848D0DFF8E2
:102CE00030040078DFF82C140870DFF87804B0F9AD
:102CF0000000DFF86C14B1F900100818022190FBF5
:102D0000F1F00600DFF8240490F90000C01E00284E
:102D100003D50320DFF814140870DFF8F80390F9E6
:102D20000000040064B2012C22DBF6B2DFF8E403F9
:102D300090F9000064B2001B00FB06F0DFF8D4132A
:102D400091F9001090FBF1F064B2DFF8B81321F8AC
:102D5000140064B2DFF8AC0330F91400002805D584
:102D6000002064B2DFF89C1321F81400641ED9E738
:102D7000BDE8F087F8B500270020DFF8FC130870E5
:102D80000020DFF8F81308700020DFF8401D0870FD
:102D90000020DFF83C1D0870002005006DB2282DD2
:102DA00080F2DF80DFF8240D90F9000000283ED18A
:102DB0006DB2DFF8B00330F815006DB2DFF8A01384
:102DC00031F81510401A00B2FDF726FB0A282EDA5A
:102DD0006DB2DFF8900330F915004B2827DA6DB299
:102DE000DFF87C0330F91500062820DB6DB2DFF830
:102DF000740310EB4500B0F904004F2817D16DB2F1
:102E0000DFF8600330F815006DB2DFF8581311EBEE
:102E1000450131F8061C401A00B2FDF7FDFA0428FE
:102E200005DA681E04000120DFF8A01C0870DFF836
:102E3000A00C90F90000002837D16DB2C94830F8D5
:102E400015006DB2C64931F81510401A00B2FDF7F1
:102E5000E3FA0A2829DA6DB2C24830F915004B2886
:102E600023DA6DB2BE4830F9150006281DDB6DB2BD
:102E7000BB4810EB4500B0F90400002815D16DB235
:102E8000B74830F815006DB2B54911EB450131F87E
:102E9000061C401A00B2FDF7BFFA042805DA681EC6
:102EA00004000120DFF8281C08706DB2062D56DAE8
:102EB000002007000020060076B24F2E0DDA76B211
:102EC0006DB2AA48285C5021A94A01FB0020305C61
:102ED000002800D17F1C761CEEE77FB24C2F04DB6C
:102EE000A5480078401CA4490870A34890F9000048
:102EF000022834DB9B48B0F928004F282FD098488F
:102F0000B0F9280000282AD09648B0F92A004F28A6
:102F100025D09348B0F92A00002820D09148B0F974
:102F20002C004F281BD08E48B0F92C00002816D05A
:102F30008C48B0F92E004F2811D08948B0F92E00E6
:102F400000280CD01420060076B2002E07D46D485D
:102F5000008D76B26B4921F81600761EF4E76D1CE1
:102F60001CE7DFF8680B90F90000002842D025002C
:102F70006DB264B214F10A00854213DA6DB2794879
:102F800010EB450030F9060C6DB2764911EB4501A6
:102F900031F90C1CD1EB40006DB2724921F81500DB
:102FA0006D1CE5E7002005006DB264B214F10A0063
:102FB00085421FDA6DB26B4830F815006DB250498A
:102FC00031F81510401A6DB24E4921F815006DB256
:102FD0004C4830F9150000280AD52E0076B2342E60
:102FE00006DA002076B2474921F81600761CF5E78C
:102FF0006D1CD9E7DFF8D80A90F90000002842D00C
:1030000025006DB264B214F10A00854213DA6DB284
:10301000534810EB450030F9040C6DB2504911EBE8
:10302000450131F9081CD1EB40006DB24C4921F843
:1030300015006D1CE5E7002005006DB264B214F1C7
:103040000A0085421FDA6DB2454830F815006DB2AE
:103050002B4931F8151008186DB22A4921F81500CE
:103060006DB2284830F9150050280ADB2E0076B2E0
:10307000342E06DA4F2076B2224921F81600761C4B
:10308000F5E76D1CD9E7F1BD10B500200400E4B2EE
:10309000322C33DAE4B2324810EB44008288D2B2E8
:1030A000E4B22F4810EB44004188C9B2E4B22C4886
:1030B00030F81400C0B2FDF7BAF9E4B2284921F89B
:1030C0001400E4B2DFF8000E10EB44008288D2B2A4
:1030D000E4B2DFF8F40D10EB44004188C9B2E4B269
:1030E000DFF8E40D30F81400C0B2FDF7A0F9E4B247
:1030F000DFF8D41D21F81400641CC8E710BD0000DF
:10310000840CFF1F8028FF1F532AFF1F502AFF1F18
:10311000512AFF1F4E2AFF1F4C2AFF1F4D2AFF1F57
:10312000542AFF1F4B2AFF1F4F2AFF1F522AFF1F3F
:10313000C504FF1F4A2AFF1F472AFF1F482AFF1FF7
:10314000582AFF1F492AFF1F562AFF1F572AFF1F11
:10315000552AFF1F132AFF1F122AFF1F042AFF1FD1
:103160001828FF1FB027FF1F022AFF1F540DFF1F43
:10317000E414FF1F032AFF1F592AFF1F5A2AFF1FAB
:103180002DE9F84F0024DFF87C5A2C700024DFF87A
:10319000785A2C700024DFF8745A2C700024DFF861
:1031A000705A2C7000245FF00008002500265FF0A4
:1031B000000CDFF8609A89F800C05FF0000CDFF8BF
:1031C0000C9D89F800C05FF0000CDFF84C9A89F87C
:1031D00000C05FF0000CDFF8F89C89F800C05FF0D9
:1031E000000C6046C0B2332880F26E84C0B2DFF8B3
:1031F000E4CC10F80CC0DFF8E09CA9F800C0C0B225
:10320000DFF8D8CC3CF910C0BCF1000F40F0598475
:10321000C0B2DFF8CCCC3CF910C0BCF1010F26DB0A
:10322000C0B2DFF8A4CC3CF910C0BCF14F0F1EDADD
:10323000C0B2DFF8A8CC3CF910C0BCF1000F16D129
:10324000C0B2DFF89CCC3CF910C0C0B2DFF8789C6B
:1032500039F9109019EB0C0C5FF002099CFBF9FC9A
:10326000C0B2DFF8789C29F810C000F02ABCC0B2C8
:10327000DFF86CCC3CF910C0BCF1000F00F0068206
:10328000C0B2DFF844CC3CF910C0BCF14E0FC0F224
:10329000FD81C0B2DFF844CC3CF910C0BCF1000F96
:1032A00040F0F481EDB2002D00D10500F6B2002E01
:1032B0005AD12F00FFB2342F56DAFFB2DFF814CC08
:1032C00017F80CC06146FFB2DFF808CC17EB0C0C06
:1032D0009CF801C06246FFB2DFF8ECCB3CF917C0A6
:1032E000BCF14F0F13D0FFB2DFF8DCCB1CEB470C67
:1032F000BCF902C0BCF14F0F09D0FFB2DFF8C8CB58
:103300001CEB470CBCF904C0BCF14F0F27D1FFB236
:10331000DFF8B4CB3CF917C0C9B25FF05009DFF851
:10332000C4AB09FB01A91CEB090C1CF801CCBCF1D6
:10333000010F16D1FFB2DFF890CB1CEB470CBCF9A4
:1033400002C0D2B25FF05009DFF898AB09FB02A9C6
:103350001CEB090C1CF801CCBCF1000F01D13E00A4
:1033600002E03E007F1CA5E7DFF8A0C89CF800C083
:10337000BCF1000F4BD1AE465FFA8EFEF6B216F1ED
:10338000050CE64543DA5FFA8EFEDFF854CB1CEB02
:103390004E0CBCF902C05FFA8EFEDFF8449B39F98F
:1033A0001E90BCEB090CBCF1000F08D45FFA8EFE36
:1033B000DFF82CCB3CF91EC0BCF14E0F04DBDFF86C
:1033C0004CC88CF800E022E05FFA8EFEDFF810CBEC
:1033D0001CEB4E0CBCF902C05FFA8EFEDFF8009BBE
:1033E00039F91E90BCEB090CBCF1000F08D55FFA4F
:1033F0008EFEDFF8ECCA3CF91EC0BCF14E0F03DABA
:10340000DFF808C88CF800E01EF1010EB4E7EDB259
:10341000002D06D0EDB2012D03D0EDB2022D40F00B
:10342000F480EDB2032D80F29C80DFF8D8C79CF9C0
:1034300000C0BCF1000F40F0948016F102094FFA71
:1034400089F9B9F1340F80F28C804FFA89F9DFF8ED
:1034500078CA1CEB490CBCF902C04FFA89F9DFF8B5
:1034600068AA3AF919A0BCEB0A0CBCF1010F78DA92
:103470004FFA89F9DFF850CA3CF919C0BCF14F0F77
:103480006FDA8DF800909DF800C0BCF1070F5EDB8D
:103490009DF800C0F6B2BCEB060CBCF1070F56DB82
:1034A000B4464FFA8CFCBCF1000F50D44FFA8CFCA0
:1034B000DFF828AA3AF91CA0BAF1000F44D15FF056
:1034C000010ADFF840B78BF800A04FFA8CFCDFF858
:1034D00010AA1AEB4C0ABAF902A04FFA8CFCDFF8DA
:1034E000E8B91BEB4C0BBBF902B00BFA8AFA5FF0A0
:1034F000020B9AFBFBFA4FFA8CFCDFF8E4B91BEBEA
:103500004C0BBBF802B0BAEB0B0A4FFA8CFCDFF89D
:10351000D0B93BF81CB01BEB0A0A4FFA8CFCDFF861
:10352000BCB92BF81CA04FFA8CFCDFF8B0A93AF913
:103530001CA0BAF14F0F07DB5FF04F0A4FFA8CFC6B
:10354000DFF898B92BF81CA0BCF1010CA9E7DFF853
:10355000B4C69CF900C0BCF1010F02D019F10109F9
:103560006DE7DFF8A0C69CF900C0BCF1000F40F089
:10357000A882EDB2042D80F2A482F6B2082EC0F229
:10358000A082DFF888C69CF800C0EDB2AC45C0F060
:1035900098825FF0010CDFF8349989F800C05FF081
:1035A000000CF6B2B44580F28C82DFF8249989F8D9
:1035B0000060DFF82C9939F91C90B9F1000F21D087
:1035C000DFF81C9939F81C90DFF85CAB3AF81CA0C6
:1035D0001AEB090919F10409DFF800A92AF81C906F
:1035E000DFF8F89839F91C90B9F14F0F0ADB5FF05A
:1035F0004F09DFF8E8A82AF81C90DFF8D49889F87A
:1036000000C05EE21CF1010CCBE7C0B2DFF8CCC811
:103610003CF910C0BCF1000F40F05382C0B2DFF89B
:10362000C0C83CF910C0BCF1000F00F04A82C0B223
:10363000DFF8A8C81CEB400C3CF804CCC0B2DFF8A3
:10364000A09819EB400939F8049CBCEB090CC0B2F6
:10365000DFF88C9839F8109019EB0C0C1CF1010C68
:10366000C0B2DFF8789829F810C0C0B2DFF86CC893
:103670003CF910C0BCF14F0FC0F223825FF04F0C39
:10368000C0B2DFF8589829F810C01AE2C0B2DFF8CB
:1036900050C83CF910C0BCF1020F80F2F581C0B2F5
:1036A000DFF824C83CF910C0BCF14F0F00F0EC81EA
:1036B000C0B2DFF828C83CF910C0BCF1000F40F0E0
:1036C000E381E4B2002C00D104005FFA88F8B8F17D
:1036D000000F5AD12700FFB2332F56DAFFB2DFF8BE
:1036E000F4C717F80CC06146FFB2DFF8E8C717EB64
:1036F0000C0C9CF801C06246FFB2DFF8E4C73CF94D
:1037000017C0BCF1000F13D0FFB2DFF8D4C71CEB19
:10371000470CBCF902C0BCF1000F09D0FFB2DFF8C2
:10372000C0C71CEB470CBCF904C0BCF1000F27D18B
:10373000FFB2DFF8ACC73CF917C0C9B25FF050095F
:10374000DFF8A0A709FB01A91CEB090C9CF801C03C
:10375000BCF1010F16D1FFB2DFF884C71CEB470C98
:10376000BCF902C0D2B25FF05009DFF878A709FBBC
:1037700002A91CEB090C9CF801C0BCF1000F01D19F
:10378000B84602E0B8467F1CA5E7DFF884C49CF881
:1037900000C0BCF1000F4CD1A6465FFA8EFE5FFA66
:1037A00088F818F1050CE64543DA5FFA8EFEDFF87B
:1037B00018C71CEB4E0CBCF902C05FFA8EFEDFF896
:1037C000089739F91E90BCEB090CBCF1010F08DA1F
:1037D0005FFA8EFEDFF8F0C63CF91EC0BCF1010FA7
:1037E00004DADFF82CC48CF800E022E05FFA8EFEE9
:1037F000DFF8D4C61CEB4E0CBCF902C05FFA8EFE9B
:10380000DFF8C49639F91E90BCEB090CBCF1010F2E
:1038100008DB5FFA8EFEDFF8B0C63CF91EC0BCF1D3
:10382000010F03DBDFF8E8C38CF800E01EF1010EA6
:10383000B3E7E4B2002C06D0E4B2012C03D0E4B22A
:10384000022C40F0E380E4B2032C80F28880DFF8A1
:10385000B8C39CF900C0BCF1000F40F0808018F1A3
:10386000020C5FFA8CFCBCF1340F78DA5FFA8CFC46
:10387000DFF86C9619EB4C09B9F902905FFA8CFCF1
:10388000DFF85CA63AF91CA0B9EB0A09B9F1000F00
:1038900065D45FFA8CFCDFF8489639F91C90B9F1D1
:1038A000010F5CDB6346DBB2072B4EDBDBB25FFA5A
:1038B00088F8B3EB0809B9F1070F46DB5FFA88F81F
:1038C000C146B9F1000F40D4DFF810A63AF919A0AB
:1038D000BAF1000F36D15FF0010ADFF82CB38BF894
:1038E00000A0DFF8FCA51AEB490ABAF902A0DFF83C
:1038F000D8B51BEB490BBBF902B00BFA8AFA5FF0A3
:10390000020B9AFBFBFADFF8C0B51BEB490BBBF8C7
:1039100002B0BAEB0B0ADFF8B0B53BF819B01BEBFD
:103920000A0ADFF8B8B52BF819A0DFF8B0A53AF904
:1039300019A0BAF1000F05D55FF0000ADFF89CB5B9
:103940002BF819A0B9F10109BBE7DFF8BC9299F98E
:103950000090B9F1010F02D01CF1010C81E7DFF8F2
:10396000A8C29CF900C0BCF1000F40F0AA80E4B2EC
:10397000032C80F2A6805FFA88F8B8F1090FC0F234
:10398000A080DFF88CC29CF800C0E4B2A445C0F06F
:1039900098805FF0010CDFF8349589F800C05FF083
:1039A000000C5FFA88F8C44580F28B80DFF8209520
:1039B00089F80080DFF8109539F91C90B9F14F0FA4
:1039C00021D0DFF8049539F81C90DFF85CA73AF8AD
:1039D0001CA0B9EB0A09B9F10409DFF800A52AF81F
:1039E0001C90DFF8F89439F91C90B9F1000F0AD552
:1039F000DFF8DC9489F800C05FF00009DFF8DCA490
:103A00002AF81C905DE01CF1010CCAE7C0B2DFF897
:103A1000CCC43CF910C0BCF1000F52D1C0B2DFF8E9
:103A2000A8C43CF910C0BCF14F0F4AD0C0B2DFF8B7
:103A3000ACC41CEB400C3CF804CCC0B2DFF888945A
:103A400019EB400939F8049CBCEB090CC0B2DFF853
:103A5000789439F8109019EB0C0CBCF1010CC0B241
:103A6000DFF8789429F810C0C0B2DFF870C43CF9D0
:103A700010C0BCF1000F24D55FF0000CC0B2DFF81D
:103A80005C9429F810C01CE0C0B2DFF850C43CF9C7
:103A900010C0BCF1000F14D1C0B2DFF82CC43CF947
:103AA00010C0C0B2DFF8389439F9109019EB0C0C43
:103AB0005FF002099CFBF9FCC0B2DFF8209429F802
:103AC00010C0401CFFF78EBBBDE8F18F5B2AFF1FC3
:103AD0005C2AFF1F70B5002500260020DFF87C1946
:103AE00008700020DFF8041E08700020040064B293
:103AF000332C33DA64B2DFF8E40310EB440040887F
:103B000064B2DFF8D81331F81410401A00B2FCF791
:103B100083FC06280DDA64B2DFF8C00330F9140024
:103B2000002806D064B2DFF8B40330F914004F283F
:103B300003D1DFF82C09047010E0DFF824090470C9
:103B4000DFF8200990F90000002805D0DFF81809F7
:103B50000088DFF80C190870641CC8E70020040016
:103B6000200040B2DFF8F818097800B209B28842A4
:103B700047DA64B2DFF8640310EB4400B0F90400E4
:103B800064B2DFF8581331F91410401A012800DB31
:103B90006D1C64B2D14810EB4400B0F9040064B26B
:103BA000CE4931F91410401A002800D5761C36B2DF
:103BB00006FA85F001F0DEF80022DFF8B03801F0F7
:103BC000F1F801F0D1F900B22DB2A84203DA0120D8
:103BD000DFF88818087036B206FA85F001F0CAF8E6
:103BE0000022DFF8883801F0DDF801F0BDF900B2FD
:103BF00036B2B04203DA0120DFF8F01C0870641C12
:103C0000AEE770BD5F2AFF1F602AFF1F5D2AFF1FFE
:103C10005E2AFF1F632AFF1F612AFF1FF8B50020DD
:103C2000DFF84C1808800020DFF8481808700020E2
:103C3000DFF84418088000260027A848B0F90A00D9
:103C4000A649B1F90010401A022802DB0120060043
:103C50004DE0A248B0F90A00A049B1F90010401A9D
:103C600010F1010F02DA0120070040E000200400FB
:103C7000E4B2332C3BDAE4B2984810EB44004088BD
:103C8000E4B2964931F81410401A00B2FCF7C4FBB4
:103C9000062827DBE4B2914810EB44008088E4B2A8
:103CA0008E4931F81410401A00B2FCF7B5FB062813
:103CB00018DBE4B2894810EB4400B0F90200032895
:103CC00007DBE4B2854810EB4400B0F902004E284F
:103CD00004DB601EDFF88817087008E0DFF8800753
:103CE000047004E0DFF878070470641CC0E7F6B2E3
:103CF000002E24D000200500EDB2302D46DAEDB2C2
:103D0000764810EB4500B0F90400EDB2734931F983
:103D10001510401A002811D4EDB2704830F9150082
:103D200000280BD0EDB26D4830F915004F2805D0B2
:103D3000681CDFF82C1708706D1CDDE726E0FFB269
:103D4000002F23D000200500EDB2322D1EDAEDB297
:103D5000624810EB4500B0F90400EDB25F4931F95B
:103D60001510401A012811DAEDB25C4830F915003F
:103D700000280BD0EDB2594830F915004F2805D076
:103D8000681CDFF8DC1608706D1CDDE7DFF8600BDF
:103D900090F90000002805D1DFF8B00B90F9000081
:103DA000002803D03220DFF8B8160870DFF8A00B27
:103DB00090F90000002832D000200500EDB2322D2D
:103DC0002DDAEDB2454810EB45004088EDB243498D
:103DD00031F81510401A00B2FCF71EFB09281EDA54
:103DE000EDB23E4810EB4500B0F90200002801D0CA
:103DF000012000E00020EDB2384911EB4501B1F996
:103E000002104F2901D0012100E00021C0B2084278
:103E100005D0681CDFF8481608706D1CCEE7DFF887
:103E2000400600782D4911EB400030F8020C2B4978
:103E30004988401A00B2FCF7EFFADFF83416088020
:103E4000DFF81C0600782D2803DB0120DFF824169C
:103E500008701E480078002804D01D480078DFF85C
:103E600000160870DFF8F8050078082804DBDFF892
:103E7000F0050078352807DB0A20DFF8E415087024
:103E80000120DFF8F4150880DFF8D4050078DFF8AA
:103E9000901B91F9001000B209B2884203DA0020A9
:103EA000DFF8801B0870DFF8B8050078DFF8781BB2
:103EB00091F9001000B209B2884203DA0020DFF85D
:103EC0006C1B0870F1BD0000B027FF1F622AFF1FA6
:103ED000642AFF1F540DFF1FE829FF1F8028FF1FC2
:103EE0001828FF1FE414FF1F70B4DFF8384B94F953
:103EF0000040002C76D0DFF8284B94F90040DFF822
:103F0000305B35F81440641F200040B2012842DBCA
:103F100040B2DFF80C4B94F90040DFF8185B645DA9
:103F20005025DFF8146B05FB0464045D012C30D1CF
:103F300040B2DFF8EC4A94F90040DFF8F85A645DCB
:103F40005025DFF8F46A05FB0464041914F8014CE9
:103F5000002C1ED1DFF8C84A94F90040DFF8D05A8F
:103F600035F9144040B2241ADFF8B45A95F90050DC
:103F70006D4E36F915506D00ED1EAC4209DA40B2B7
:103F8000DFF89C4A94F90040DFF8B05A25F8140095
:103F900001E0401EB9E700242200140064B2DFF8FB
:103FA000C0542D7824B22DB2AC421BDADFF8704A2F
:103FB00094F90040DFF8845A35F91440DFF8605A6C
:103FC00095F90050DFF8686A36F915502C1902256A
:103FD00094FBF5F4E41C52B2DFF8885C25F812403B
:103FE000521CDAE7DFF8444A94F90040002C75D0FF
:103FF000DFF8344A94F90040DFF8405A35F81440AD
:10400000641D210049B24E2941DA49B2DFF8184A4D
:1040100094F90040DFF81C5A645D5025DFF8186AF7
:1040200005FB04640C5D012C2FD149B2DFF8F8497F
:1040300094F90040DFF8FC59645D5025DFF8F86919
:1040400005FB04640C196478002C1ED149B2DFF81A
:10405000D84994F90040DFF8E45935F914400C1BB5
:10406000DFF8C45995F900502F4E36F915506D0000
:10407000ED1EAC4209DA49B2DFF8AC4994F90040D0
:10408000DFF8AC5925F8141001E0491CBAE7002408
:1040900023001C0064B2DFF8C8532D7824B22DB27F
:1040A000AC421BDADFF8804994F90040DFF88C5904
:1040B00035F91440DFF8705995F90050DFF8706950
:1040C00036F915502C19022594FBF5F4E41E5BB269
:1040D000DFF8905B25F813405B1CDAE770BC704793
:1040E00010B500200400E4B2322C1CDAE4B2DFF890
:1040F000740B10EB44008288D2B2E4B2DFF8640B98
:1041000010EB44004188C9B2E4B2DFF8580B30F834
:104110001400C0B2FCF78BF9E4B2DFF8481B21F8B9
:104120001400641CDFE710BD840CFF1F2DE9F04173
:10413000DFF8440B002101600027DFF8400B00216D
:104140000160282600208046C54800785FFA88F87C
:10415000804532D25FFA88F8C84830F91800F6B2C4
:10416000801B00EE100AB8EEC00A5FFA88F8DFF88C
:10417000100B10EB8800D0ED000ADFF8FC0A90ED80
:10418000001A00EE201ADFF8F00A80ED001A3FB2A4
:1041900000EE107AB8EEC00A5FFA88F8DFF8E00A9D
:1041A00010EB8800D0ED000A30EE200ABDEEC00A08
:1041B00010EE107A18F10108C6E7A9480078AF4957
:1041C00011EB400030F9020CA5490978AB4A12EB1B
:1041D000410131F9041C01FA80F000F0CBFD00220E
:1041E0005FF0804300F0ECFE04000D00A348B0F93E
:1041F0000200A249B1F90410081800F0BBFD00222A
:104200005FF0804300F0DCFE02000B00200029007C
:1042100000F0FAFF04000D009148007800F0B4FDB2
:104220000022DFF8603A00F0BDFD00225FF040435D
:1042300001F0AAF802000B002000290000F0C0FEE7
:1042400001F016F9DFF8401A0860854800788B49BC
:1042500011EB400030F9020C81490978874A12EBD2
:10426000410131F9041C01FA80F000F083FD0022C5
:104270005FF0804300F0A4FE04000D007F48B0F919
:1042800002007E49B1F90410081800F073FD002205
:104290005FF0804300F094FE02000B002000290034
:1042A00000F0B2FF01F0E4F8DFF8E01908603FB277
:1042B00000EE107AB8EEC00ADFF8BC09D0ED000AB3
:1042C00080EE800ADFF8C80980ED000ADFF8C00937
:1042D00090ED000ADFF8BC09D0ED000A30EE600A6C
:1042E00010EE100A01F00CF90022DFF8AC3900F0F2
:1042F00059FD01F0BDF8DFF884190860DFF8940972
:10430000DFF88C1909680160DFF89009007800284F
:1043100026D0DFF87C0990ED000ADFF88409D0EDA3
:10432000000A9FED4D1A00EE601ADFF85C0990ED6F
:10433000000ADFF87009D0ED000A00EE601ADFF81D
:104340003C0990ED000ADFF86009D0ED000A00EEAC
:10435000601ABCEEC10ADFF8540980ED000A68E07B
:1043600044480078002826D0DFF8240990ED000AA0
:10437000DFF83C09D0ED000A9FED371A00EE601A15
:10438000DFF8040990ED000ADFF82809D0ED000AF3
:1043900000EE601ADFF8E40890ED000ADFF8180973
:1043A000D0ED000A00EE601ABCEEC10ADFF8FC088E
:1043B00080ED000A3DE03048B0F90000002812D03E
:1043C000DFF8F80890F9000000280CD1DFF8F008B9
:1043D00090F90000002806D1DFF8E8080068DFF84F
:1043E000CC18086025E0DFF8A80890ED000ADFF897
:1043F000D808D0ED000A9FED181A00EE601ADFF819
:10440000880890ED000ADFF8C408D0ED000A00EE3D
:10441000601ADFF8680890ED000ADFF8B408D0ED04
:10442000000A00EE601ABCEEC10ADFF8800880EDD9
:10443000000ADFF8A00890F90000002804D040F23C
:104440004D30DFF868180860DFF860080068DFF8B2
:1044500074180860BDE8F08100405344652AFF1FCE
:104460000E2AFF1F2D2AFF1FEA29FF1F0000E83F29
:10447000FA29FF1F632AFF1FFC29FF1F8028FF1F47
:104480002DE9F84F0020DFF850180880DFF84C08BD
:1044900000780928C0F21B82002005006DB2082DAB
:1044A00007DA6DB2DFF8BC0730F8150004196D1C8F
:1044B000F4E724B2082094FBF0F08146B9F127001C
:1044C00000B2FBF7A9FFDFF810180880DFF8A80793
:1044D000002101600026DFF8A407002101605FF0E1
:1044E000280800200700DFF8F407007800B23FB288
:1044F000B84231DB3FB2DFF86C0730F917000FFA32
:1045000088F8B0EB080000EE100AB8EEC00A3FB21F
:10451000DFF8CC0710EB8700D0ED000ADFF8580772
:1045200090ED001A00EE201ADFF84C0780ED001A1B
:1045300036B200EE106AB8EEC00A3FB2DFF8A0074C
:1045400010EB8700D0ED000A30EE200ABDEEC00A65
:1045500010EE106A7F1CC6E7DFF880070078DFF8EE
:10456000041711EB400030F9020CDFF870170978DE
:10457000DFF8F02632F9111001FA80F000F0FAFBB2
:1045800000225FF0804300F01BFD82468B46DFF87F
:10459000D406B0F90200DFF8CC16B1F90010081803
:1045A00000F0E8FB00225FF0804300F009FD02000C
:1045B0000B005046594600F027FE82468B46DFF836
:1045C0001C07007800F0E0FB0022DFF8B83600F0AE
:1045D000E9FB00225FF0404300F0D6FE02000B0032
:1045E0005046594600F0ECFC00F042FFDFF8981608
:1045F0000860DFF8E8060078DFF8681611EB400085
:1046000030F9020CDFF8D4160978DFF8582632F9B1
:10461000111001FA80F0022190FBF1F0DFF844164E
:10462000B1F90210DFF83C26B2F90020511802223D
:1046300091FBF2F1401ADFF8AC160880DFF89C0617
:104640000078DFF8201611EB400030F9020CDFF89B
:104650008C160978DFF80C2612EB410131F9041CA5
:1046600001FA80F000F086FB00225FF0804300F04A
:10467000A7FC82468B46DFF8EC05B0F90200DFF8B4
:10468000E415B1F90410081800F074FB00225FF083
:10469000804300F095FC02000B005046594600F0A4
:1046A000B3FD00F0E5FEDFF8E415086036B200EE79
:1046B000106AB8EEC00ADFF8C005D0ED000A80EE3F
:1046C000800ADFF8CC0580ED000ADFF8C40590ED24
:1046D000000ADFF8C005D0ED000A30EE600A10EEE7
:1046E000100A00F00DFF0022DFF8AC3500F05AFB95
:1046F00000F0BEFEDFF884150860DFF89805DFF8EB
:10470000901509680160DFF8D005B0F900000A28AB
:1047100046DADFF87C0590ED000ADFF8CC05D0ED35
:10472000000A9FEDBE1A00EE601A11EE100A00F0AA
:10473000E7FE82468B46DFF8500590ED000ADFF871
:10474000AC05D0ED000A20EE200A10EE100A00F0B1
:10475000D7FE0022DFF8403500F024FB02000B00FA
:104760005046594600F050FD82468B46DFF80C0556
:1047700090ED000ADFF87805D0ED000A20EE200A5F
:1047800010EE100A00F0BCFE02000B005046594625
:1047900000F03AFD00F0FEFBDFF81015086061E064
:1047A000DFF83405B0F90000192846DADFF8E00434
:1047B00090ED000ADFF83C05D0ED000A9FED971A56
:1047C00000EE601A11EE100A00F09AFE82468B4647
:1047D000DFF8B40490ED000ADFF81C05D0ED000A04
:1047E00020EE200A10EE100A00F08AFE0022DFF808
:1047F000A83400F0D7FA02000B005046594600F0EA
:1048000003FD82468B46DFF8740490ED000ADFF862
:10481000EC04D0ED000A20EE200A10EE100A00F0A1
:104820006FFE02000B005046594600F0EDFC00F010
:10483000B1FBDFF87814086014E02C4890F9000010
:10484000002804D040F2B930DFF860140860DFF8C7
:10485000B00490F90000002804D04FF43870DFF85D
:104860004C140860DFF87C04B0F90000FBF7D4FDBD
:104870000A2832DADFF86004B0F900000A282CDADE
:10488000DFF80C0490ED000ADFF87804D0ED000AA0
:104890009FED621A00EE601ADFF8EC0390ED000A5B
:1048A000DFF86404D0ED000A00EE601ADFF8CC03F4
:1048B00090ED000ADFF85404D0ED000A00EE601A13
:1048C000BCEEC10ADFF8E40380ED000A05E0DFF882
:1048D00040040068DFF8D4130860DFF8D0030068F4
:1048E000DFF82C140860BDE8F18F0000662AFF1F76
:1048F0005C2AFF1FF0B5B5B004000D0016000020C3
:104900000700FFB2AF4210D2FFB24A48385CFFB294
:1049100001A911EB87014880FFB234F81700FFB2FC
:1049200001A921F827007F1CEBE72800451E00287D
:1049300009D001A850F825000090310089B20098F4
:1049400000F084FEF1E735B0F0BD00005B2AFF1FE8
:10495000492AFF1F30B5BDB03C2500200400E4B259
:104960003C2C0CDAE4B2E4B201A810EB84004480E1
:104970004F20E4B201A921F82400641CEFE72800CD
:10498000451EC0B2002809D0EDB201A850F825009C
:1049900000901F21009800F059FEF0E73DB030BDB7
:1049A00030B5D1B0502500200400E4B2502C0CDA10
:1049B0003B20E4B201A911EB84014880E4B2E4B2E7
:1049C00001A820F82440641CEFE72800451EC0B26F
:1049D000002809D0EDB201A850F8250000901F2151
:1049E000009800F033FEF0E751B030BD10B534242C
:1049F000FFF7B0FFFFF7D4FF4FF6FF722100994891
:104A0000FFF778FF1F2221000C48FFF773FF1F22DA
:104A10002100C048FFF76EFF10BD00000040534466
:104A20003B2AFF1F332AFF1F3C2AFF1F342AFF1F88
:104A3000B027FF1F540DFF1FE414FF1F1828FF1F8E
:104A40002DE9F04F87B034244FF478422100854897
:104A5000FFF750FF4FF478422100AF48FFF74AFFBD
:104A60004FF478422100AB48FFF744FFAB480068A1
:104A700005904FF478431F2258A1059800F014FFC9
:104A8000A748006804904FF4784000901F23052247
:104A9000A448B0F90010049800F03AFFA24800685A
:104AA00003904FF478431F226DA1039800F0FCFEA1
:104AB0009E48006802904FF4784000901F23052222
:104AC0009B48B0F90010029800F022FF9948006856
:104AD00001904FF478431F2263A1019800F0E4FE97
:104AE000954805684FF4784000901F2302227B48C8
:104AF0000178280000F00CFF904806684FF47843D6
:104B00001F225AA1300000F0CFFE8D4807684FF4F5
:104B1000784000901F2302228A4890F90010380044
:104B200000F0F6FE8848D0F800804FF478431F224A
:104B30004FA1404600F0B8FE8448D0F800904FF4F2
:104B4000784000901F230222814890F900104846C7
:104B500000F0DEFE7F48D0F800A04FF478431F221B
:104B600044A1504600F0A0FE7B48D0F800B04FF4BE
:104B7000784000901F2303227848B0F9001058466F
:104B800000F0C6FE07B0BDE8F08F754890F9000050
:104B9000002803D00120734908701DE0474890F9B0
:104BA0000000002803D002206E49087014E0654818
:104BB00090F90000002803D003206A4908700BE038
:104BC0003F4890F90000002803D004206549087090
:104BD00002E0052063490870704700007A00000079
:104BE00080B5FFF72DFFFCF735FF5F4890F9000017
:104BF000002802D001205A490870594890F9000055
:104C000000281CD0584890F90000002801D1FCF77A
:104C1000C7FFFEF739FAFEF7B3FAFDF7EFFDFFF72E
:104C20005FFAFEF7A7F8FEF7F9FF4F4890F900008A
:104C3000002801D1FFF758F9FFF778FA07E0FEF7EF
:104C400023FAFFF74DFAFEF745FFFFF719FCFFF7D0
:104C5000CDFEFFF79AFF454800784549087001BD31
:104C6000793A00008028FF1F4800000053443A00B2
:104C7000323A000067313A007029FF1F8429FF1F74
:104C8000880DFF1F0000F03F7829FF1F8029FF1FBC
:104C90007429FF1F7C29FF1F00002440622AFF1F88
:104CA000F811FF1F0412FF1F1012FF1F5029FF1FD2
:104CB000FC11FF1F0812FF1F1412FF1F292AFF1FDC
:104CC000312AFF1F5429FF1F0012FF1F0C12FF1F64
:104CD0001812FF1F5A2AFF1FFE29FF1F0E2AFF1F4F
:104CE000580EFF1F002AFF1F1C12FF1F2012FF1F5C
:104CF0002412FF1F2812FF1F2C12FF1F3012FF1F4C
:104D0000652AFF1F3412FF1F3812FF1F3C12FF1FBE
:104D10008829FF1FB027FF1F1828FF1F48ED00003C
:104D20004CED00004812FF1F50ED000054ED000054
:104D30004C12FF1F58ED00005CED000060ED00001C
:104D400064ED00002D2AFF1F68ED00006CED0000EF
:104D50005B2AFF1F70ED000074ED0000E229FF1FC9
:104D60002A2AFF1F672AFF1F492AFF1F1E2AFF1F2B
:104D7000102AFF1F010040F10980F446404200F074
:104D800005F851F000416047010000BF09D0B0FABA
:104D900080F18840C91CC1F58461090501EBD0216F
:104DA00040057047B0B581EA030C0CF0004C40F2AE
:104DB000FF7515EA11541DBF15EA1357AC42AF42F7
:104DC00039E0E41923EA455343F48013C90241F062
:104DD000004141EA505EC7021100A7FB0202002811
:104DE0004FF00000EEFB01204FF00001E3FB072134
:104DF00018BF42F00102401800214941E3FB0E01B7
:104E0000A4F580640F0302D252004041494154F19D
:104E100001046CDD470872F1004250F1000051EBD3
:104E20000451A1F580115CBF41EA0C01B0BD4CEA10
:104E300005510020B0BD05EA1357AC4214BFAF4284
:104E400041E050EA410E1CBF52EA430E02E06146C7
:104E50000020B0BD24423C441BD15FEA070EF6D0CF
:104E6000090302BF01460020AEF1140EB1FA81F72A
:104E7000AEEB070401FA07FE0C37C7F1200100FA78
:104E800007F7C8404EEA000E23EA455343F4801367
:104E9000A2E733F00043B3FA83F704BFB2FA82FE0D
:104EA00077440B3FE41BB7F1200E2FBF02FA0EF33D
:104EB000BB40C7F1200E22FA0EFE38BF43EA0E03B4
:104EC000BA40641C82E750EA410E14BF52EA430E16
:104ED0006FF000014FF4001717EB430F8ABF19461C
:104EE00017EB410FB5E74CEA05510020B0BDD4F1F6
:104EF0000104B4F120070FDAC4F12007520828BFDB
:104F000042F0010210FA07F501FA07F7E1BF2A4360
:104F1000E0403843E1400FE0352C98DCC7F1200435
:104F200052EA400220FA07F218BF42F0010231FAB9
:104F300007F0A1400A43002172F1004250F1000045
:104F400051EB0C01B0BD50F8041B61B150F8042BBB
:104F5000D30744BFA9F101039A18002342F8043B88
:104F6000091FFAD1EFE77047F446400D40EAC1202F
:104F7000490006D200F014F8004248BF6FF000402C
:104F8000604700F00DF84FF0004188428CBF0846A2
:104F900040426047400D40EAC120490080F00D804A
:104FA00040F00040490DA1F58061491C05D4D1F1C4
:104FB0001F0154BFC840C01770474FF00000704732
:104FC000F0B540F2FF7581EA030C0CF0004C15EAD5
:104FD00011541DBF15EA1357AC42AF42E5E0BC4186
:104FE000C1F31301C3F31303801A994143F48013EF
:104FF00004D2641E4000494180185941C90241EA67
:105000005051B1FBF3F603FB1611A2FB0675D7EB6B
:10501000C020A94102D2761E80185941C90241EA36
:105020005051B1FBF3FE03FB1E11A2FB0E75D7EB33
:10503000C020A94103D2AEF1010E80185941890266
:1050400041EA9051760546EA8E2EB1FBF3F603FB5A
:105050001611A2FB0675D7EB8020A94102D2761E5D
:1050600080185941C90241EA50514EEA060EB1FB7F
:10507000F3F603FB1611A2FB0675D7EBC020A9417E
:1050800002D2761E80185941C90241EA5051B1FB43
:10509000F3F703FB1711A2FB0735D3EBC020A9419F
:1050A00067F100070CBF004247F0010766F3D52700
:1050B0004FEA1E31B80814F5806412DDBD0775F1A2
:1050C000004250EB0E5051EB045111F5801F5CBFB4
:1050D00041EA0C01F0BD4CF07F6141F0E04100205D
:1050E000F0BDBD076D0840EA0E5041F48011D4F1C7
:1050F0000104B4F120060ADAC4F120060200E040FF
:1051000001FA06F3E1401843B24015430EE0342C97
:1051100013DCC6F1200445EA40056D0820FA06F2CA
:10512000154321FA06F0A1400D43002175F100421C
:1051300050F1000051EB0C01F0BD00205FEA0C01C2
:10514000F0BDCFB992185B41B3FA83F704BFB2FA4E
:1051500082F6BF190B3FB7F120062FBF02FA06F304
:10516000BB40C7F1200622FA06F638BF3343BA40E7
:105170001CB1E419641E33E77F4231F00041B1FAFB
:1051800081F404BFB0FA80F6A4190B3CB4F12006F8
:105190002FBF00FA06F1A140C4F1200620FA06F65E
:1051A00038BF3143A0403C1B1AE7AC421ABF05EAA6
:1051B0001357AF4212E050EA41061CBF52EA4306C1
:1051C000BFE750EA4107304661461CBF41EA05513E
:1051D000F0BD52EA430C08BFC143F0BD00204FF4BC
:1051E000001616EB410F98BF16EB430F08BF16EBE6
:1051F000410F24BFC14305E016EB430F0CBF6146CE
:105200004CEA0551F0BD010070B44FF0004591EA41
:10521000030F44BF6B4000F0C1B800BF841A71EBAC
:10522000030604D26E40001BB141121973414FF4C2
:10523000001C1CEB410F34BF7CEB430684E00C0DDB
:10524000A4EB1356362E7DDC012E43DC45EAC32346
:1052500043EA525312BFD20292025B08240545EA88
:10526000C12141EA5051D2EBC020994125D407D148
:10527000B0FA80F610FA06F164D00020203608E07B
:10528000B1FA81F6B140C6F1200220FA02F21143D0
:10529000B0404FEAF474B4EB465434F001064FEAE0
:1052A00074040AD8D6F50016760D04F00044F040D8
:1052B00061FA06F25040F1404840C00A40EA4150CD
:1052C00021F0004128BF5FEA500550F1000044EB97
:1052D000D12137E045EAC323DB0A45EAC121C90AE7
:1052E000B6F120050EDD42EA0242120CC5F120069D
:1052F00003FA06F6EB4042EA06056D42984161F179
:1053000000010DE062FA06F5F240554063FA06FC32
:1053100082EA0C02F3405A406D42904161EB030176
:1053200011F4801F05D1641E620502D06D0040415A
:10533000494121F48011430875F1004350F1000008
:1053400041EB045170BC70471CEB410F15D223F0A8
:10535000004352EA43060BD04FEA4C0CBCEB410F22
:1053600004D80C0D661E342EB7DDEBE7801A994188
:1053700050EA410608BF0021E4E708BF1CEB430FD9
:1053800028BF6FF00001DDE770B44FF0004591EAEF
:10539000030C44BF6B40FFF741BF00BF841A71EBA1
:1053A000030603D2001BB141121973414FF4001CD4
:1053B0001CEB410F34BF7CEB430443E00C0DA4EB2A
:1053C0001356352E50DC45EAC323DB0A45EAC121DA
:1053D000C912B6F120050DDD63FA05F6EB4086EA49
:1053E0000305124218BF45F00105C01851F1000134
:1053F0000CD213E062FA06F5F2405540F3415A40F0
:10540000B340F3405A408018594107D349085FEA36
:1054100030005FEA350528BF45F0010501F5801130
:10542000420875F1004250F1000041EB045170BC9C
:105430004FF4001C1CEB410F38BF70470020090DD2
:10544000090570471CEB410F10D252EA43060BD0FE
:10545000BCEB410F05D80C0DAB43661E342EB5DDF9
:1054600002E0AB438018594170BC704770BC704774
:105470004FEAF17CBCF1E04C2CBFBCF5001F11E001
:105480005FEA4C0C34BFBCF17F5F2EE05FEA9C0CFE
:105490004FEA0C1C4FEA3C0CC10071F100414CEB8F
:1054A00050707047C90241EA5051C00218BF41F024
:1054B000010141F000414FEA6C50C0F10900212880
:1054C00010D240EACC7CCCF1200C11FA0CF070F137
:1054D0000040CCF1200C21FA0CF00CF0004C40EB19
:1054E0000C0070474FEACC707047490011F5001F5F
:1054F00004D84FEACC10FF30C0057047C81770477A
:105500005FF0FF0C1CEAD05114BF614506E0C110EA
:10551000400721F0E04101F16051704779B900F096
:10552000004100020AD0B0FA80FC00FA0CF001F150
:105530006051A1EB0C5101EBD021400570474102B5
:105540000CBF40F4E0016FF0000100207047000044
:1055500010B582B0DFF82006046800F01FFB02F0EF
:1055600014F9ADF8000002F00DF9ADF802004FF4A7
:1055700078420099200000F001F813BDF2B5040054
:1055800015000099200001F0F9FFBDF80000BDF8FA
:105590000210484307000120DFF8E01508600020F2
:1055A000DFF8DC1508600020DFF8D81508602C2033
:1055B000DFF8D41508700020DFF8D015086001204E
:1055C000DFF8C81508600120DFF8B8150860002072
:1055D0000600BE4239D20120DFF8A0150860012084
:1055E000DFF89C1508600020DFF898150860ADB260
:1055F000280ADFF8941508700020DFF8901508607D
:105600000120DFF8881508600120DFF878150860B0
:105610000120DFF8681508600120DFF864150860D4
:105620000020DFF860150860DFF85C0505700020D9
:10563000DFF8581508600120DFF8501508600120D8
:10564000DFF840150860761CC3E7F1BD70B50400B3
:105650000D00DFF83C0506683100200001F08EFFE8
:105660000120DFF8181508600020DFF81415086025
:105670000020DFF8101508602C20DFF80C150870EA
:105680000020DFF8081508600120DFF80015086029
:105690000120DFF8F01408600120DFF8E014086052
:1056A0000120DFF8DC1408600020DFF8D81408605F
:1056B000ADB2280ADFF8D01408700020DFF8CC144F
:1056C00008600120DFF8C41408600120DFF8B4147A
:1056D00008600120DFF8A41408600120DFF8A0149E
:1056E00008600020DFF89C140860DFF89C04057057
:1056F0000020DFF8981408600120DFF8901408609B
:105700000120DFF88014086070BD2DE9F14781B0F9
:105710000C0015001E00DFF87C04D0F800A002F099
:1057200034F80838BDF80410884206DB02F02AF885
:105730001038BDF80610884200DAB3E051460198EF
:1057400001F01CFF0120DFF8341408600020DFF8AE
:10575000301408600020DFF82C1408602C20DFF8DB
:10576000281408700020DFF8241408600120DFF8F6
:105770001C1408600120DFF80C140860002081462A
:105780005FFA89F9B9F1100F80F28C80E4B2200140
:1057900050FA89F0DFF800144018B0F50070007876
:1057A0000700002080465FFA88F8B8F1080F76DA23
:1057B000380638D50120DFF8C41308600120DFF86F
:1057C000C01308600020DFF8BC130860ADB2280ADF
:1057D000DFF8B41308700020DFF8B0130860012070
:1057E000DFF8A81308600120DFF898130860012093
:1057F000DFF8881308600120DFF8841308600020B8
:10580000DFF880130860DFF8800305700020DFF800
:105810007C1308600120DFF8741308600120DFF8B2
:105820006413086037E00120DFF85013086001209E
:10583000DFF84C1308600020DFF848130860B6B2A8
:10584000300ADFF8441308700020DFF840130860C6
:105850000120DFF8381308600120DFF82813086002
:105860000120DFF8181308600120DFF81413086026
:105870000020DFF810130860DFF80C03067000202A
:10588000DFF8081308600120DFF80013086001202A
:10589000DFF8F01208607F0018F1010883E719F1C2
:1058A00001096DE7BDE8F38771B581B00C00150003
:1058B0001E00207800282AD001F067FF0838BDF8C4
:1058C0000410884207DA0020ADF80400BDF8060095
:1058D0001030ADF8060001F055FF1038BDF8061085
:1058E000884205DA0020ADF806000020ADF804007B
:1058F00033009BB22A0092B221780198FFF705FF8E
:10590000BDF804000830ADF80400641CD1E773BD95
:105910002DE9F14382B0894615001E000A9C4F46CE
:105920005FF00008BDF80A00ADF80600B9F1000FFD
:105930001CD123009BB2320092B230210298FFF7B3
:10594000E4FEBDF808000830ADF808001020ADF8FE
:105950000200EDB2681E80B2C000ADF80000220067
:1059600092B200990298FFF709FE4EE0002F05D091
:105970000A20B7FBF0F718F10108F7E75FFA88F89B
:10598000EDB2A84500D3A8465FFA88F847465FFA0B
:1059900088F8B8F1000F1FD0BDF808005FFA88F84A
:1059A0001FFA88F810EBC8000838ADF80400B8F109
:1059B00001080A2023009BB2320092B2B9FBF0F139
:1059C00000FB119010F13001C9B20198FFF79DFE64
:1059D0000A20B9FBF0F9DAE7EDB2AF4215D0EDB22B
:1059E000E81B80B2C000ADF80000BDF80800F90067
:1059F00011FA80F0ADF808001020ADF80200220086
:105A000092B200990298FFF7B9FDBDE8F7832DE93E
:105A1000FB4F04009246D3460199200001F0AEFDF1
:105A2000012056490860002055490860002055496A
:105A300008602C2054490870002054490860012057
:105A40005249086001204F49086000208046BDF897
:105A500006001FFA88F8804580F08B801FFA88F8CE
:105A6000BDF80A0000FB08F0BDF8061090FBF1F04D
:105A7000ADF80000BDF80000BDF80810484306006E
:105A800000200700BDF80400BFB287426ED2BFB24B
:105A9000BDF8080000FB07F0BDF8041090FBF1F022
:105AA000814616FA89F00500E80810F80B0001217C
:105AB00015F00702D2F10702914008422AD10120D5
:105AC0002E49086001202E49086000202D490860F9
:105AD000FF202D49087000202C49086001202B4927
:105AE000086001202749086001202449086001203E
:105AF00023490860002023490860FF2022490870DC
:105B000000202249086001202049086001201D4929
:105B1000086029E00120194908600120184908603F
:105B20000020184908600020174908700020174914
:105B30000860012015490860012012490860012011
:105B40000E49086001200E49086000200D490860D8
:105B500000200D49087000200C49086001200B4905
:105B600008600120074908607F1C8BE718F10108D5
:105B70006DE7BDE8F78F000078ED00002810FE43C8
:105B80003010FE432C10FE4380F00F402410FE43E3
:105B90007CED000080ED00003CD0000010B500203E
:105BA0000400E4B2082C08DA0022012114F14000BC
:105BB000C0B201F0FFFD641CF3E70022012149207F
:105BC00001F0F8FD012201214A2001F0F3FD01223C
:105BD00001214B2001F0EEFD002201214C2001F0BB
:105BE000E9FD002201214D2001F0E4FD4FF4A071F8
:105BF000492001F073FE4FF4A0714A2001F06EFEBF
:105C00004FF4A0714B2001F069FE4FF4A0714C20BD
:105C100001F064FE0020DFF8241D08600120DFF899
:105C20001C1D08604FF4FA7001F0CBFE0120DFF874
:105C3000101D08600020DFF80C1D08600020DFF850
:105C4000081D08601120DFF8041D08700020DFF82F
:105C5000001D08600120DFF8F81C08600120DFF853
:105C6000E81C0860782001F0ACFE0120DFF8D01CB1
:105C700008600020DFF8CC1C08600020DFF8C81C9A
:105C80000860B120DFF8C41C08700020DFF8C01CD9
:105C900008600120DFF8B81C08600120DFF8A81CAC
:105CA00008600120DFF8981C08600120DFF8941CD0
:105CB00008600020DFF8901C08600520DFF88C1CCD
:105CC00008700020DFF8881C08600120DFF8801CC5
:105CD00008600120DFF8701C08600120DFF8601CFC
:105CE00008600120DFF85C1C08600020DFF8581C09
:105CF00008603A20DFF8541C08700020DFF8501CC0
:105D000008600120DFF8481C08600120DFF8381C1B
:105D100008600120DFF8281C08600120DFF8241C3F
:105D200008600020DFF8201C08603A20DFF81C1C07
:105D300008700020DFF8181C08600120DFF8101C34
:105D400008600120DFF8001C08600120DFF8F01B6C
:105D500008600020DFF8EC1B08600020DFF8E81B7B
:105D60000860B220DFF8E41B08700020DFF8E01BB9
:105D700008600120DFF8D81B08600120DFF8C81B8D
:105D800008600120DFF8B81B08600120DFF8B41BB1
:105D900008600020DFF8B01B08600520DFF8AC1BAE
:105DA00008700020DFF8A81B08600120DFF8A01BA6
:105DB00008600120DFF8901B08600120DFF8801BDD
:105DC00008600120DFF87C1B08600020DFF8781BEA
:105DD00008603A20DFF8741B08700020DFF8701BA1
:105DE00008600120DFF8681B08600120DFF8581BFD
:105DF00008600120DFF8481B08600120DFF8441B21
:105E000008600020DFF8401B08603A20DFF83C1BE8
:105E100008700020DFF8381B08600120DFF8301B15
:105E200008600120DFF8201B08600120DFF8101B4C
:105E300008600020DFF80C1B08600020DFF8081B5A
:105E40000860B320DFF8041B08700020DFF8001B97
:105E500008600120DFF8F81A08600120DFF8E81A6E
:105E600008600120DFF8D81A08600120DFF8D41A92
:105E700008600020DFF8D01A08600520DFF8CC1A8F
:105E800008700020DFF8C81A08600120DFF8C01A87
